{"abi":[{"type":"constructor","inputs":[{"name":"_governanceCommittee","type":"address","internalType":"address"}],"stateMutability":"nonpayable"},{"type":"fallback","stateMutability":"payable"},{"type":"receive","stateMutability":"payable"},{"type":"function","name":"CHALLENGE_THRESHOLD","inputs":[],"outputs":[{"name":"","type":"uint256","internalType":"uint256"}],"stateMutability":"view"},{"type":"function","name":"MAX_CONSENSUS_NODES","inputs":[],"outputs":[{"name":"","type":"uint256","internalType":"uint256"}],"stateMutability":"view"},{"type":"function","name":"MAX_PARTITION_NODES","inputs":[],"outputs":[{"name":"","type":"uint256","internalType":"uint256"}],"stateMutability":"view"},{"type":"function","name":"MIN_STAKE_EDGE","inputs":[],"outputs":[{"name":"","type":"uint256","internalType":"uint256"}],"stateMutability":"view"},{"type":"function","name":"MIN_STAKE_PARTITION","inputs":[],"outputs":[{"name":"","type":"uint256","internalType":"uint256"}],"stateMutability":"view"},{"type":"function","name":"MIN_STAKE_ROOT","inputs":[],"outputs":[{"name":"","type":"uint256","internalType":"uint256"}],"stateMutability":"view"},{"type":"function","name":"OFFLINE_PENALTY_RATE","inputs":[],"outputs":[{"name":"","type":"uint256","internalType":"uint256"}],"stateMutability":"view"},{"type":"function","name":"SLASH_PENALTY_RATE","inputs":[],"outputs":[{"name":"","type":"uint256","internalType":"uint256"}],"stateMutability":"view"},{"type":"function","name":"STAKE_LOCK_PERIOD","inputs":[],"outputs":[{"name":"","type":"uint256","internalType":"uint256"}],"stateMutability":"view"},{"type":"function","name":"addValidator","inputs":[{"name":"validator","type":"address","internalType":"address"}],"outputs":[],"stateMutability":"nonpayable"},{"type":"function","name":"authorizedValidators","inputs":[{"name":"","type":"address","internalType":"address"}],"outputs":[{"name":"","type":"bool","internalType":"bool"}],"stateMutability":"view"},{"type":"function","name":"consensusNodes","inputs":[{"name":"","type":"uint256","internalType":"uint256"}],"outputs":[{"name":"","type":"address","internalType":"address"}],"stateMutability":"view"},{"type":"function","name":"contractState","inputs":[],"outputs":[{"name":"","type":"uint8","internalType":"enum OrasrsStakingGmContract.ContractState"}],"stateMutability":"view"},{"type":"function","name":"edgeNodes","inputs":[{"name":"","type":"uint256","internalType":"uint256"}],"outputs":[{"name":"","type":"address","internalType":"address"}],"stateMutability":"view"},{"type":"function","name":"emergencyStop","inputs":[],"outputs":[],"stateMutability":"nonpayable"},{"type":"function","name":"getConsensusNodes","inputs":[],"outputs":[{"name":"","type":"address[]","internalType":"address[]"}],"stateMutability":"view"},{"type":"function","name":"getContractStats","inputs":[],"outputs":[{"name":"totalStaked","type":"uint256","internalType":"uint256"},{"name":"activeNodes","type":"uint256","internalType":"uint256"},{"name":"totalConsensusNodes","type":"uint256","internalType":"uint256"},{"name":"totalPartitionNodes","type":"uint256","internalType":"uint256"},{"name":"totalEdgeNodes","type":"uint256","internalType":"uint256"}],"stateMutability":"view"},{"type":"function","name":"getEdgeNodes","inputs":[],"outputs":[{"name":"","type":"address[]","internalType":"address[]"}],"stateMutability":"view"},{"type":"function","name":"getNodeInfo","inputs":[{"name":"nodeAddress","type":"address","internalType":"address"}],"outputs":[{"name":"","type":"tuple","internalType":"struct OrasrsStakingGmContract.Node","components":[{"name":"nodeAddress","type":"address","internalType":"address"},{"name":"stakeAmount","type":"uint256","internalType":"uint256"},{"name":"stakeStart","type":"uint256","internalType":"uint256"},{"name":"reputationScore","type":"uint256","internalType":"uint256"},{"name":"status","type":"uint8","internalType":"enum OrasrsStakingGmContract.NodeStatus"},{"name":"nodeId","type":"string","internalType":"string"},{"name":"businessLicense","type":"string","internalType":"string"},{"name":"filingNumber","type":"string","internalType":"string"},{"name":"challengeCount","type":"uint256","internalType":"uint256"},{"name":"challengesWon","type":"uint256","internalType":"uint256"},{"name":"challengesLost","type":"uint256","internalType":"uint256"},{"name":"lastSeen","type":"uint256","internalType":"uint256"},{"name":"isConsensusNode","type":"bool","internalType":"bool"}]}],"stateMutability":"view"},{"type":"function","name":"getPartitionNodes","inputs":[],"outputs":[{"name":"","type":"address[]","internalType":"address[]"}],"stateMutability":"view"},{"type":"function","name":"governanceCommittee","inputs":[],"outputs":[{"name":"","type":"address","internalType":"address"}],"stateMutability":"view"},{"type":"function","name":"nodeIdToAddress","inputs":[{"name":"","type":"string","internalType":"string"}],"outputs":[{"name":"","type":"address","internalType":"address"}],"stateMutability":"view"},{"type":"function","name":"nodes","inputs":[{"name":"","type":"address","internalType":"address"}],"outputs":[{"name":"nodeAddress","type":"address","internalType":"address"},{"name":"stakeAmount","type":"uint256","internalType":"uint256"},{"name":"stakeStart","type":"uint256","internalType":"uint256"},{"name":"reputationScore","type":"uint256","internalType":"uint256"},{"name":"status","type":"uint8","internalType":"enum OrasrsStakingGmContract.NodeStatus"},{"name":"nodeId","type":"string","internalType":"string"},{"name":"businessLicense","type":"string","internalType":"string"},{"name":"filingNumber","type":"string","internalType":"string"},{"name":"challengeCount","type":"uint256","internalType":"uint256"},{"name":"challengesWon","type":"uint256","internalType":"uint256"},{"name":"challengesLost","type":"uint256","internalType":"uint256"},{"name":"lastSeen","type":"uint256","internalType":"uint256"},{"name":"isConsensusNode","type":"bool","internalType":"bool"}],"stateMutability":"view"},{"type":"function","name":"owner","inputs":[],"outputs":[{"name":"","type":"address","internalType":"address"}],"stateMutability":"view"},{"type":"function","name":"partitionNodes","inputs":[{"name":"","type":"uint256","internalType":"uint256"}],"outputs":[{"name":"","type":"address","internalType":"address"}],"stateMutability":"view"},{"type":"function","name":"pauseContract","inputs":[],"outputs":[],"stateMutability":"nonpayable"},{"type":"function","name":"pendingWithdrawals","inputs":[{"name":"","type":"address","internalType":"address"}],"outputs":[{"name":"","type":"uint256","internalType":"uint256"}],"stateMutability":"view"},{"type":"function","name":"removeValidator","inputs":[{"name":"validator","type":"address","internalType":"address"}],"outputs":[],"stateMutability":"nonpayable"},{"type":"function","name":"requestWithdrawal","inputs":[{"name":"amount","type":"uint256","internalType":"uint256"}],"outputs":[],"stateMutability":"nonpayable"},{"type":"function","name":"resolveChallenge","inputs":[{"name":"cacheKey","type":"string","internalType":"string"},{"name":"challengedNode","type":"address","internalType":"address"},{"name":"challengeSuccessful","type":"bool","internalType":"bool"},{"name":"challengerNodes","type":"address[]","internalType":"address[]"}],"outputs":[],"stateMutability":"nonpayable"},{"type":"function","name":"resumeContract","inputs":[],"outputs":[],"stateMutability":"nonpayable"},{"type":"function","name":"slashNode","inputs":[{"name":"nodeAddress","type":"address","internalType":"address"},{"name":"reason","type":"string","internalType":"string"}],"outputs":[],"stateMutability":"nonpayable"},{"type":"function","name":"stakeWithGmSign","inputs":[{"name":"nodeId","type":"string","internalType":"string"},{"name":"amount","type":"uint256","internalType":"uint256"},{"name":"sm2Signature","type":"bytes","internalType":"bytes"},{"name":"dataHash","type":"bytes32","internalType":"bytes32"},{"name":"nonce","type":"uint256","internalType":"uint256"},{"name":"businessLicenseHash","type":"string","internalType":"string"},{"name":"filingNumberHash","type":"string","internalType":"string"},{"name":"nodeType","type":"uint8","internalType":"uint8"}],"outputs":[],"stateMutability":"payable"},{"type":"function","name":"submitCacheChallenge","inputs":[{"name":"cacheKey","type":"string","internalType":"string"},{"name":"reason","type":"string","internalType":"string"},{"name":"challengeData","type":"bytes","internalType":"bytes"}],"outputs":[],"stateMutability":"nonpayable"},{"type":"function","name":"updateReputation","inputs":[{"name":"nodeAddress","type":"address","internalType":"address"},{"name":"reputationDelta","type":"int256","internalType":"int256"}],"outputs":[],"stateMutability":"nonpayable"},{"type":"function","name":"usedNonces","inputs":[{"name":"","type":"bytes32","internalType":"bytes32"}],"outputs":[{"name":"","type":"bool","internalType":"bool"}],"stateMutability":"view"},{"type":"function","name":"withdraw","inputs":[],"outputs":[],"stateMutability":"nonpayable"},{"type":"event","name":"ChallengeResolved","inputs":[{"name":"cacheKey","type":"string","indexed":true,"internalType":"string"},{"name":"success","type":"bool","indexed":false,"internalType":"bool"},{"name":"penaltyAmount","type":"uint256","indexed":false,"internalType":"uint256"},{"name":"rewardAmount","type":"uint256","indexed":false,"internalType":"uint256"},{"name":"timestamp","type":"uint256","indexed":false,"internalType":"uint256"}],"anonymous":false},{"type":"event","name":"ContractStateChanged","inputs":[{"name":"newState","type":"uint8","indexed":false,"internalType":"enum OrasrsStakingGmContract.ContractState"},{"name":"timestamp","type":"uint256","indexed":false,"internalType":"uint256"}],"anonymous":false},{"type":"event","name":"NodeChallenged","inputs":[{"name":"cacheKey","type":"string","indexed":true,"internalType":"string"},{"name":"challenger","type":"address","indexed":true,"internalType":"address"},{"name":"reason","type":"string","indexed":false,"internalType":"string"},{"name":"timestamp","type":"uint256","indexed":false,"internalType":"uint256"}],"anonymous":false},{"type":"event","name":"NodeSlashed","inputs":[{"name":"nodeId","type":"string","indexed":false,"internalType":"string"},{"name":"penaltyAmount","type":"uint256","indexed":false,"internalType":"uint256"},{"name":"reason","type":"string","indexed":false,"internalType":"string"},{"name":"timestamp","type":"uint256","indexed":false,"internalType":"uint256"}],"anonymous":false},{"type":"event","name":"NodeStaked","inputs":[{"name":"nodeId","type":"string","indexed":false,"internalType":"string"},{"name":"nodeAddress","type":"address","indexed":true,"internalType":"address"},{"name":"amount","type":"uint256","indexed":false,"internalType":"uint256"},{"name":"timestamp","type":"uint256","indexed":false,"internalType":"uint256"}],"anonymous":false},{"type":"event","name":"NodeWithdrawn","inputs":[{"name":"nodeAddress","type":"address","indexed":true,"internalType":"address"},{"name":"amount","type":"uint256","indexed":false,"internalType":"uint256"},{"name":"timestamp","type":"uint256","indexed":false,"internalType":"uint256"}],"anonymous":false}],"bytecode":{"object":"0x6080604052348015600e575f5ffd5b50604051612e3e380380612e3e833981016040819052602b916066565b60088054336001600160a01b031991821617909155600980549091166001600160a01b03929092169190911790555f805460ff191690556091565b5f602082840312156075575f5ffd5b81516001600160a01b0381168114608a575f5ffd5b9392505050565b612da08061009e5f395ff3fe608060405260043610610204575f3560e01c80637434aa7f11610116578063c27f66a6116100a4578063d2332ae51161006b578063d2332ae5146105cd578063d842d487146105ec578063dfe6b5d614610600578063f3f437031461063c578063feb617241461066757005b8063c27f66a61461053d578063c4bc5da51461057d578063c7056f7114610591578063cb7ed053146105a5578063cbcd7e26146105b957005b80639ee679e8116100e85780639ee679e8146104cd578063a946f371146104ec578063b571c45d146103f9578063bb22eb931461050b578063bcea7a1e1461051e57005b80637434aa7f1461045f57806385209ee0146104745780638da5cb5b1461049957806396e95573146104b857005b80634669554e11610193578063587141631161016557806358714163146103bb5780635b0058ee146103f957806363a599a41461040d5780636a08b5111461042157806372c0a0711461044057005b80634669554e146103255780634d238c8e1461035c5780634d3f6dce1461037b578063582115fb1461038f57005b806330c214af116101d757806330c214af146102ab5780633c074c1a146102ca5780633ccfd60b146102de57806340a141ff146102f2578063439766ce1461031157005b8063026286a2146102065780630bd1f4d414610230578063189a5a171461024f5780631932526d14610287575b005b348015610211575f5ffd5b5061021a610695565b604051610227919061225c565b60405180910390f35b34801561023b575f5ffd5b5061020461024a366004612372565b6106f5565b34801561025a575f5ffd5b5061026e61026936600461246f565b610a74565b6040516102279d9c9b9a999897969594939291906124e5565b348015610292575f5ffd5b5061029d62093a8081565b604051908152602001610227565b3480156102b6575f5ffd5b506102046102c5366004612590565b610c7b565b3480156102d5575f5ffd5b5061029d601581565b3480156102e9575f5ffd5b50610204610dd1565b3480156102fd575f5ffd5b5061020461030c36600461246f565b610efb565b34801561031c575f5ffd5b50610204610f45565b348015610330575f5ffd5b50600954610344906001600160a01b031681565b6040516001600160a01b039091168152602001610227565b348015610367575f5ffd5b5061020461037636600461246f565b610fb8565b348015610386575f5ffd5b5061021a611005565b34801561039a575f5ffd5b506103ae6103a936600461246f565b611063565b60405161022791906125da565b3480156103c6575f5ffd5b506103e96103d536600461246f565b600a6020525f908152604090205460ff1681565b6040519015158152602001610227565b348015610404575f5ffd5b5061029d606481565b348015610418575f5ffd5b506102046112d8565b34801561042c575f5ffd5b5061020461043b3660046126cd565b611341565b34801561044b575f5ffd5b5061020461045a3660046126f5565b61143c565b34801561046a575f5ffd5b5061029d61138881565b34801561047f575f5ffd5b505f5461048c9060ff1681565b6040516102279190612790565b3480156104a4575f5ffd5b50600854610344906001600160a01b031681565b3480156104c3575f5ffd5b5061029d61271081565b3480156104d8575f5ffd5b506102046104e73660046127a4565b61152e565b3480156104f7575f5ffd5b506103446105063660046127a4565b61171e565b6102046105193660046127cb565b611746565b348015610529575f5ffd5b506103446105383660046127a4565b611d21565b348015610548575f5ffd5b506103446105573660046128ac565b80516020818301810180516002825292820191909301209152546001600160a01b031681565b348015610588575f5ffd5b50610204611d30565b34801561059c575f5ffd5b5061029d603281565b3480156105b0575f5ffd5b5061029d600581565b3480156105c4575f5ffd5b5061029d600381565b3480156105d8575f5ffd5b506103446105e73660046127a4565b611d93565b3480156105f7575f5ffd5b5061021a611da2565b34801561060b575f5ffd5b50610614611e00565b604080519586526020860194909452928401919091526060830152608082015260a001610227565b348015610647575f5ffd5b5061029d61065636600461246f565b60036020525f908152604090205481565b348015610672575f5ffd5b506103e96106813660046127a4565b60046020525f908152604090205460ff1681565b606060078054806020026020016040519081016040528092919081815260200182805480156106eb57602002820191905f5260205f20905b81546001600160a01b031681526001909101906020018083116106cd575b5050505050905090565b335f908152600a602052604090205460ff1661072c5760405162461bcd60e51b8152600401610723906128e5565b60405180910390fd5b60026001600160a01b0384165f90815260016020526040902060049081015460ff169081111561075e5761075e61248f565b146107ab5760405162461bcd60e51b815260206004820152601a60248201527f4368616c6c656e676564206e6f6465206e6f74206163746976650000000000006044820152606401610723565b5f8083156109db576001600160a01b0385165f90815260016020819052604090912001546107db9060029061294a565b91508160015f876001600160a01b03166001600160a01b031681526020019081526020015f206001015f8282546108129190612969565b90915550506001600160a01b0385165f9081526001602081905260408220600a0180549192909161084490849061297c565b90915550508251156109d657606461085d83605061298f565b610867919061294a565b90505f835182610877919061294a565b90505f5b84518110156109d357600260015f87848151811061089b5761089b6129a6565b6020908102919091018101516001600160a01b031682528101919091526040015f2060049081015460ff16908111156108d6576108d661248f565b146109235760405162461bcd60e51b815260206004820152601760248201527f496e76616c6964206368616c6c656e676572206e6f64650000000000000000006044820152606401610723565b8160015f878481518110610939576109396129a6565b60200260200101516001600160a01b03166001600160a01b031681526020019081526020015f206001015f828254610971919061297c565b925050819055506001805f87848151811061098e5761098e6129a6565b60200260200101516001600160a01b03166001600160a01b031681526020019081526020015f206009015f8282546109c6919061297c565b909155505060010161087b565b50505b610a0e565b6001600160a01b0385165f9081526001602081905260408220600901805491929091610a0890849061297c565b90915550505b85604051610a1c91906129d1565b60408051918290038220861515835260208301859052908201839052426060830152907f74d6427c3fd4aa257b75a89a6033f9ba06f7e222fb3b519c867cee06590731389060800160405180910390a2505050505050565b600160208190525f91825260409091208054918101546002820154600383015460048401546005850180546001600160a01b039097169694959394929360ff90921692610ac0906129dc565b80601f0160208091040260200160405190810160405280929190818152602001828054610aec906129dc565b8015610b375780601f10610b0e57610100808354040283529160200191610b37565b820191905f5260205f20905b815481529060010190602001808311610b1a57829003601f168201915b505050505090806006018054610b4c906129dc565b80601f0160208091040260200160405190810160405280929190818152602001828054610b78906129dc565b8015610bc35780601f10610b9a57610100808354040283529160200191610bc3565b820191905f5260205f20905b815481529060010190602001808311610ba657829003601f168201915b505050505090806007018054610bd8906129dc565b80601f0160208091040260200160405190810160405280929190818152602001828054610c04906129dc565b8015610c4f5780601f10610c2657610100808354040283529160200191610c4f565b820191905f5260205f20905b815481529060010190602001808311610c3257829003601f168201915b50505060088401546009850154600a860154600b870154600c9097015495969295919450925060ff168d565b6009546001600160a01b03163314610ca55760405162461bcd60e51b815260040161072390612a14565b6001600160a01b0382165f908152600160205260409020600260048083015460ff1690811115610cd757610cd761248f565b1480610cfb5750600160048083015460ff1690811115610cf957610cf961248f565b145b610d3c5760405162461bcd60e51b81526020600482015260126024820152714e6f6465206e6f7420736c61736861626c6560701b6044820152606401610723565b5f6064808360010154610d4f919061298f565b610d59919061294a565b905080826001015f828254610d6e9190612969565b909155505060048201805460ff19166003179055610d8b8461206c565b7f29d3b019dde3be973987ebf47056cdb5b79cfc806dc02481c57c392f603b01b582600501828542604051610dc39493929190612a5a565b60405180910390a150505050565b335f9081526003602052604090205480610e255760405162461bcd60e51b8152602060048201526015602482015274139bc81c195b991a5b99c81dda5d1a191c985dd85b605a1b6044820152606401610723565b335f818152600360205260408082208290555190919083908381818185875af1925050503d805f8114610e73576040519150601f19603f3d011682016040523d82523d5f602084013e610e78565b606091505b5050905080610ebd5760405162461bcd60e51b815260206004820152601160248201527015da5d1a191c985dd85b0819985a5b1959607a1b6044820152606401610723565b6040805183815242602082015233917faf756aaab6f491c5918231b3f926a22345c8c22aa77ea58090f5390b4de62fec910160405180910390a25050565b6008546001600160a01b03163314610f255760405162461bcd60e51b815260040161072390612b03565b6001600160a01b03165f908152600a60205260409020805460ff19169055565b6009546001600160a01b03163314610f6f5760405162461bcd60e51b815260040161072390612a14565b5f805460ff191660019081179091556040517fbef423ced52545594b81c8679c0d9566b5129c4120568a000c6ff1c9e89e71f491610fae914290612b44565b60405180910390a1565b6008546001600160a01b03163314610fe25760405162461bcd60e51b815260040161072390612b03565b6001600160a01b03165f908152600a60205260409020805460ff19166001179055565b606060068054806020026020016040519081016040528092919081815260200182805480156106eb57602002820191905f5260205f209081546001600160a01b031681526001909101906020018083116106cd575050505050905090565b61106b6121e2565b6001600160a01b038083165f9081526001602081815260409283902083516101a08101855281549095168552918201549084015260028101549183019190915260038101546060830152600480820154608084019160ff909116908111156110d5576110d561248f565b60048111156110e6576110e661248f565b81526020016005820180546110fa906129dc565b80601f0160208091040260200160405190810160405280929190818152602001828054611126906129dc565b80156111715780601f1061114857610100808354040283529160200191611171565b820191905f5260205f20905b81548152906001019060200180831161115457829003601f168201915b5050505050815260200160068201805461118a906129dc565b80601f01602080910402602001604051908101604052809291908181526020018280546111b6906129dc565b80156112015780601f106111d857610100808354040283529160200191611201565b820191905f5260205f20905b8154815290600101906020018083116111e457829003601f168201915b5050505050815260200160078201805461121a906129dc565b80601f0160208091040260200160405190810160405280929190818152602001828054611246906129dc565b80156112915780601f1061126857610100808354040283529160200191611291565b820191905f5260205f20905b81548152906001019060200180831161127457829003601f168201915b50505091835250506008820154602082015260098201546040820152600a8201546060820152600b8201546080820152600c9091015460ff16151560a09091015292915050565b6009546001600160a01b031633146113025760405162461bcd60e51b815260040161072390612a14565b5f805460ff191660029081179091556040517fbef423ced52545594b81c8679c0d9566b5129c4120568a000c6ff1c9e89e71f491610fae914290612b44565b335f908152600a602052604090205460ff1661136f5760405162461bcd60e51b8152600401610723906128e5565b6001600160a01b0382165f9081526001602052604081209060048083015460ff16908111156113a0576113a061248f565b036113e35760405162461bcd60e51b8152602060048201526013602482015272139bd919481b9bdd081c9959da5cdd195c9959606a1b6044820152606401610723565b5f821315611405578181600301546113fb9190612b5f565b600382015561142e565b5f8282600301546114169190612b5f565b90505f8113611425575f611427565b805b6003830155505b61143783612165565b505050565b5f5f5460ff1660028111156114535761145361248f565b146114705760405162461bcd60e51b815260040161072390612b86565b6002335f90815260016020526040902060049081015460ff16908111156114995761149961248f565b146114d85760405162461bcd60e51b815260206004820152600f60248201526e4e6f6465206e6f742061637469766560881b6044820152606401610723565b60405133906114e89085906129d1565b60405180910390207f717ee91fa7db4305f5956b037088380481a4cfd06c75084d1cbf9047552f501e8442604051611521929190612bb6565b60405180910390a3505050565b5f5f5460ff1660028111156115455761154561248f565b146115625760405162461bcd60e51b815260040161072390612b86565b335f9081526001602052604081209060048083015460ff169081111561158a5761158a61248f565b036115cd5760405162461bcd60e51b8152602060048201526013602482015272139bd919481b9bdd081c9959da5cdd195c9959606a1b6044820152606401610723565b600360048083015460ff16908111156115e8576115e861248f565b036116355760405162461bcd60e51b815260206004820152601d60248201527f536c6173686564206e6f6465732063616e6e6f742077697468647261770000006044820152606401610723565b62093a808160020154611648919061297c565b42101561168f5760405162461bcd60e51b8152602060048201526015602482015274131bd8dac81c195c9a5bd9081b9bdd08195b991959605a1b6044820152606401610723565b81816001015410156116df5760405162461bcd60e51b8152602060048201526019602482015278125b9cdd59999a58da595b9d081cdd185ad948185b5bdd5b9d603a1b6044820152606401610723565b81816001015f8282546116f29190612969565b9091555050335f908152600360205260408120805484929061171590849061297c565b90915550505050565b6005818154811061172d575f80fd5b5f918252602090912001546001600160a01b0316905081565b5f5f5460ff16600281111561175d5761175d61248f565b1461177a5760405162461bcd60e51b815260040161072390612b86565b5f3389894288604051602001611794959493929190612bd7565b60408051601f1981840301815291815281516020928301205f818152600490935291205490915060ff16156118005760405162461bcd60e51b8152602060048201526012602482015271139bdb98d948185b1c9958591e481d5cd95960721b6044820152606401610723565b5f818152600460205260409020805460ff191660011790555f611822836121ad565b9050808910156118705760405162461bcd60e51b8152602060048201526019602482015278125b9cdd59999a58da595b9d081cdd185ad948185b5bdd5b9d603a1b6044820152606401610723565b883410156118b85760405162461bcd60e51b8152602060048201526015602482015274125b9cdd59999a58da595b9d08115512081cd95b9d605a1b6044820152606401610723565b5f6001600160a01b031660028b6040516118d291906129d1565b908152604051908190036020019020546001600160a01b0316146119315760405162461bcd60e51b81526020600482015260166024820152754e6f646520494420616c72656164792065786973747360501b6044820152606401610723565b5f85511161198b5760405162461bcd60e51b815260206004820152602160248201527f427573696e657373206c6963656e7365206861736820697320726571756972656044820152601960fa1b6064820152608401610723565b5f8451116119db5760405162461bcd60e51b815260206004820152601e60248201527f46696c696e67206e756d626572206861736820697320726571756972656400006044820152606401610723565b5f604051806101a00160405280336001600160a01b031681526020018b81526020014281526020016064815260200160016004811115611a1d57611a1d61248f565b815260208082018e905260408083018a905260608084018a90525f608080860182905260a0860182905260c086018290524260e0870152610100909501819052338152600180855290839020865181546001600160a01b0319166001600160a01b03909116178155938601518482015591850151600284015584015160038301559183015160048083018054959650869593949293909260ff1991909116918490811115611acd57611acd61248f565b021790555060a08201516005820190611ae69082612c60565b5060c08201516006820190611afb9082612c60565b5060e08201516007820190611b109082612c60565b5061010082015160088201556101208201516009820155610140820151600a820155610160820151600b82015561018090910151600c909101805460ff19169115159190911790556040513390600290611b6b908e906129d1565b90815260405190819003602001902080546001600160a01b03929092166001600160a01b031990921691909117905560ff84165f03611c3c57600554601511611bf65760405162461bcd60e51b815260206004820152601b60248201527f4d617820636f6e73656e737573206e6f646573207265616368656400000000006044820152606401610723565b600580546001810182555f919091527f036b6384b5eca791c62761152d0c79bb0604c104a5fb6f4eb0703f3154bb3db00180546001600160a01b03191633179055611ccf565b8360ff16600103611c8d57600680546001810182555f919091527ff652222313e28459528d920b65115c16c04f3efc82aaedc97be59f3f377c0d3f0180546001600160a01b03191633179055611ccf565b600780546001810182555f919091527fa66cc928b5edb82af9bd49922954155ab7b0942694bea4ce44661d9a8736c6880180546001600160a01b031916331790555b336001600160a01b03167ffdf75d38b722231f2e8ad2ed00c938a754fc34bb6935c29efe0195f8227698a28c8c42604051611d0c93929190612d1a565b60405180910390a25050505050505050505050565b6007818154811061172d575f80fd5b6009546001600160a01b03163314611d5a5760405162461bcd60e51b815260040161072390612a14565b5f805460ff191681556040517fbef423ced52545594b81c8679c0d9566b5129c4120568a000c6ff1c9e89e71f491610fae914290612b44565b6006818154811061172d575f80fd5b606060058054806020026020016040519081016040528092919081815260200182805480156106eb57602002820191905f5260205f209081546001600160a01b031681526001909101906020018083116106cd575050505050905090565b6005546006546007545f92839290918380805b600554811015611ed557600260015f60058481548110611e3557611e356129a6565b5f9182526020808320909101546001600160a01b03168352820192909252604001902060049081015460ff1690811115611e7157611e7161248f565b03611ecd5760015f60058381548110611e8c57611e8c6129a6565b5f9182526020808320909101546001600160a01b03168352820192909252604001902060010154611ebd908461297c565b925081611ec981612d3e565b9250505b600101611e13565b505f5b600654811015611f9a57600260015f60068481548110611efa57611efa6129a6565b5f9182526020808320909101546001600160a01b03168352820192909252604001902060049081015460ff1690811115611f3657611f3661248f565b03611f925760015f60068381548110611f5157611f516129a6565b5f9182526020808320909101546001600160a01b03168352820192909252604001902060010154611f82908461297c565b925081611f8e81612d3e565b9250505b600101611ed8565b505f5b60075481101561205f57600260015f60078481548110611fbf57611fbf6129a6565b5f9182526020808320909101546001600160a01b03168352820192909252604001902060049081015460ff1690811115611ffb57611ffb61248f565b036120575760015f60078381548110612016576120166129a6565b5f9182526020808320909101546001600160a01b03168352820192909252604001902060010154612047908461297c565b92508161205381612d3e565b9250505b600101611f9d565b5090969095509293509091565b5f5b60055481101561216157816001600160a01b031660058281548110612095576120956129a6565b5f918252602090912001546001600160a01b03160361215957600580546120be90600190612969565b815481106120ce576120ce6129a6565b5f91825260209091200154600580546001600160a01b0390921691839081106120f9576120f96129a6565b905f5260205f20015f6101000a8154816001600160a01b0302191690836001600160a01b03160217905550600580548061213557612135612d56565b5f8281526020902081015f1990810180546001600160a01b03191690550190555050565b60010161206e565b5050565b6001600160a01b0381165f90815260016020526040902060038101546050111561216157600c81015460ff16156121615761219f8261206c565b600c01805460ff1916905550565b5f8160ff165f036121c15750612710919050565b8160ff166001036121d55750611388919050565b506064919050565b919050565b604051806101a001604052805f6001600160a01b031681526020015f81526020015f81526020015f81526020015f60048111156122215761222161248f565b81526020016060815260200160608152602001606081526020015f81526020015f81526020015f81526020015f81526020015f151581525090565b602080825282518282018190525f918401906040840190835b8181101561229c5783516001600160a01b0316835260209384019390920191600101612275565b509095945050505050565b634e487b7160e01b5f52604160045260245ffd5b604051601f8201601f191681016001600160401b03811182821017156122e3576122e36122a7565b604052919050565b5f82601f8301126122fa575f5ffd5b8135602083015f5f6001600160401b03841115612319576123196122a7565b50601f8301601f191660200161232e816122bb565b915050828152858383011115612342575f5ffd5b828260208301375f92810160200192909252509392505050565b80356001600160a01b03811681146121dd575f5ffd5b5f5f5f5f60808587031215612385575f5ffd5b84356001600160401b0381111561239a575f5ffd5b6123a6878288016122eb565b9450506123b56020860161235c565b9250604085013580151581146123c9575f5ffd5b915060608501356001600160401b038111156123e3575f5ffd5b8501601f810187136123f3575f5ffd5b80356001600160401b0381111561240c5761240c6122a7565b8060051b61241c602082016122bb565b9182526020818401810192908101908a841115612437575f5ffd5b6020850194505b838510156124605761244f8561235c565b82526020948501949091019061243e565b979a9699509497505050505050565b5f6020828403121561247f575f5ffd5b6124888261235c565b9392505050565b634e487b7160e01b5f52602160045260245ffd5b600581106124b3576124b361248f565b9052565b5f81518084528060208401602086015e5f602082860101526020601f19601f83011685010191505092915050565b6001600160a01b038e168152602081018d9052604081018c9052606081018b9052612513608082018b6124a3565b6101a060a08201525f61252a6101a083018b6124b7565b82810360c084015261253c818b6124b7565b905082810360e0840152612550818a6124b7565b9150508661010083015285610120830152846101408301528361016083015261257e61018083018415159052565b9e9d5050505050505050505050505050565b5f5f604083850312156125a1575f5ffd5b6125aa8361235c565b915060208301356001600160401b038111156125c4575f5ffd5b6125d0858286016122eb565b9150509250929050565b602081526125f46020820183516001600160a01b03169052565b6020820151604082015260408201516060820152606082015160808201525f608083015161262560a08401826124a3565b5060a08301516101a060c08401526126416101c08401826124b7565b905060c0840151601f198483030160e085015261265e82826124b7565b91505060e0840151601f198483030161010085015261267d82826124b7565b9150506101008401516101208401526101208401516101408401526101408401516101608401526101608401516101808401526101808401516126c56101a085018215159052565b509392505050565b5f5f604083850312156126de575f5ffd5b6126e78361235c565b946020939093013593505050565b5f5f5f60608486031215612707575f5ffd5b83356001600160401b0381111561271c575f5ffd5b612728868287016122eb565b93505060208401356001600160401b03811115612743575f5ffd5b61274f868287016122eb565b92505060408401356001600160401b0381111561276a575f5ffd5b612776868287016122eb565b9150509250925092565b600381106124b3576124b361248f565b6020810161279e8284612780565b92915050565b5f602082840312156127b4575f5ffd5b5035919050565b803560ff811681146121dd575f5ffd5b5f5f5f5f5f5f5f5f610100898b0312156127e3575f5ffd5b88356001600160401b038111156127f8575f5ffd5b6128048b828c016122eb565b9850506020890135965060408901356001600160401b03811115612826575f5ffd5b6128328b828c016122eb565b965050606089013594506080890135935060a08901356001600160401b0381111561285b575f5ffd5b6128678b828c016122eb565b93505060c08901356001600160401b03811115612882575f5ffd5b61288e8b828c016122eb565b92505061289d60e08a016127bb565b90509295985092959890939650565b5f602082840312156128bc575f5ffd5b81356001600160401b038111156128d1575f5ffd5b6128dd848285016122eb565b949350505050565b60208082526031908201527f4f6e6c7920617574686f72697a65642076616c696461746f72732063616e206360408201527030b636103a3434b990333ab731ba34b7b760791b606082015260800190565b634e487b7160e01b5f52601160045260245ffd5b5f8261296457634e487b7160e01b5f52601260045260245ffd5b500490565b8181038181111561279e5761279e612936565b8082018082111561279e5761279e612936565b808202811582820484141761279e5761279e612936565b634e487b7160e01b5f52603260045260245ffd5b5f81518060208401855e5f93019283525090919050565b5f61248882846129ba565b600181811c908216806129f057607f821691505b602082108103612a0e57634e487b7160e01b5f52602260045260245ffd5b50919050565b60208082526026908201527f4f6e6c7920676f7665726e616e63652063616e2063616c6c20746869732066756040820152653731ba34b7b760d11b606082015260800190565b608081525f5f8654612a6b816129dc565b806080860152600182165f8114612a895760018114612aa557612ad6565b60ff19831660a087015260a082151560051b8701019350612ad6565b895f5260205f205f5b83811015612acd57815488820160a00152600190910190602001612aae565b870160a0019450505b5050508560208401528281036040840152612af181866124b7565b91505082606083015295945050505050565b60208082526021908201527f4f6e6c79206f776e65722063616e2063616c6c20746869732066756e6374696f6040820152603760f91b606082015260800190565b60408101612b528285612780565b8260208301529392505050565b8082018281125f831280158216821582161715612b7e57612b7e612936565b505092915050565b602080825260169082015275436f6e7472616374206973206e6f742061637469766560501b604082015260600190565b604081525f612bc860408301856124b7565b90508260208301529392505050565b6bffffffffffffffffffffffff198660601b1681525f612bfa60148301876129ba565b94855250506020830191909152604082015260600192915050565b601f82111561143757805f5260205f20601f840160051c81016020851015612c3a5750805b601f840160051c820191505b81811015612c59575f8155600101612c46565b5050505050565b81516001600160401b03811115612c7957612c796122a7565b612c8d81612c8784546129dc565b84612c15565b6020601f821160018114612cbf575f8315612ca85750848201515b5f19600385901b1c1916600184901b178455612c59565b5f84815260208120601f198516915b82811015612cee5787850151825560209485019460019092019101612cce565b5084821015612d0b57868401515f19600387901b60f8161c191681555b50505050600190811b01905550565b606081525f612d2c60608301866124b7565b60208301949094525060400152919050565b5f60018201612d4f57612d4f612936565b5060010190565b634e487b7160e01b5f52603160045260245ffdfea26469706673582212204b89d3fa0f6797f08b0bf7dcb0d125877b82950800e19e309a2cffa8a9192be064736f6c634300081e0033","linkReferences":{}},"methodIdentifiers":{"CHALLENGE_THRESHOLD()":"cbcd7e26","MAX_CONSENSUS_NODES()":"3c074c1a","MAX_PARTITION_NODES()":"c7056f71","MIN_STAKE_EDGE()":"b571c45d","MIN_STAKE_PARTITION()":"7434aa7f","MIN_STAKE_ROOT()":"96e95573","OFFLINE_PENALTY_RATE()":"cb7ed053","SLASH_PENALTY_RATE()":"5b0058ee","STAKE_LOCK_PERIOD()":"1932526d","addValidator(address)":"4d238c8e","authorizedValidators(address)":"58714163","consensusNodes(uint256)":"a946f371","contractState()":"85209ee0","edgeNodes(uint256)":"bcea7a1e","emergencyStop()":"63a599a4","getConsensusNodes()":"d842d487","getContractStats()":"dfe6b5d6","getEdgeNodes()":"026286a2","getNodeInfo(address)":"582115fb","getPartitionNodes()":"4d3f6dce","governanceCommittee()":"4669554e","nodeIdToAddress(string)":"c27f66a6","nodes(address)":"189a5a17","owner()":"8da5cb5b","partitionNodes(uint256)":"d2332ae5","pauseContract()":"439766ce","pendingWithdrawals(address)":"f3f43703","removeValidator(address)":"40a141ff","requestWithdrawal(uint256)":"9ee679e8","resolveChallenge(string,address,bool,address[])":"0bd1f4d4","resumeContract()":"c4bc5da5","slashNode(address,string)":"30c214af","stakeWithGmSign(string,uint256,bytes,bytes32,uint256,string,string,uint8)":"bb22eb93","submitCacheChallenge(string,string,bytes)":"72c0a071","updateReputation(address,int256)":"6a08b511","usedNonces(bytes32)":"feb61724","withdraw()":"3ccfd60b"},"id":2}