{"abi":[{"type":"constructor","inputs":[{"name":"_governanceCommittee","type":"address","internalType":"address"}],"stateMutability":"nonpayable"},{"type":"function","name":"MIN_VERIFICATION_COUNT","inputs":[],"outputs":[{"name":"","type":"uint256","internalType":"uint256"}],"stateMutability":"view"},{"type":"function","name":"addAuthorizedAgent","inputs":[{"name":"_agentAddress","type":"address","internalType":"address"}],"outputs":[],"stateMutability":"nonpayable"},{"type":"function","name":"addAuthorizedValidator","inputs":[{"name":"_validatorAddress","type":"address","internalType":"address"}],"outputs":[],"stateMutability":"nonpayable"},{"type":"function","name":"authorizedAgents","inputs":[{"name":"","type":"address","internalType":"address"}],"outputs":[{"name":"","type":"bool","internalType":"bool"}],"stateMutability":"view"},{"type":"function","name":"authorizedValidators","inputs":[{"name":"","type":"address","internalType":"address"}],"outputs":[{"name":"","type":"bool","internalType":"bool"}],"stateMutability":"view"},{"type":"function","name":"contractState","inputs":[],"outputs":[{"name":"","type":"uint8","internalType":"enum ThreatEvidence.ContractState"}],"stateMutability":"view"},{"type":"function","name":"getThreatReport","inputs":[{"name":"_threatId","type":"string","internalType":"string"}],"outputs":[{"name":"","type":"tuple","internalType":"struct ThreatEvidence.ThreatAttestation","components":[{"name":"id","type":"string","internalType":"string"},{"name":"timestamp","type":"uint256","internalType":"uint256"},{"name":"sourceIP","type":"string","internalType":"string"},{"name":"targetIP","type":"string","internalType":"string"},{"name":"threatType","type":"uint8","internalType":"enum ThreatEvidence.ThreatType"},{"name":"threatLevel","type":"uint8","internalType":"enum ThreatEvidence.ThreatLevel"},{"name":"context","type":"string","internalType":"string"},{"name":"evidenceHash","type":"string","internalType":"string"},{"name":"geolocation","type":"string","internalType":"string"},{"name":"agentAddress","type":"address","internalType":"address"},{"name":"verified","type":"bool","internalType":"bool"},{"name":"verificationCount","type":"uint256","internalType":"uint256"}]}],"stateMutability":"view"},{"type":"function","name":"governanceCommittee","inputs":[],"outputs":[{"name":"","type":"address","internalType":"address"}],"stateMutability":"view"},{"type":"function","name":"owner","inputs":[],"outputs":[{"name":"","type":"address","internalType":"address"}],"stateMutability":"view"},{"type":"function","name":"pauseContract","inputs":[],"outputs":[],"stateMutability":"nonpayable"},{"type":"function","name":"resumeContract","inputs":[],"outputs":[],"stateMutability":"nonpayable"},{"type":"function","name":"submitThreatReport","inputs":[{"name":"reportData","type":"tuple","internalType":"struct ThreatEvidence.ThreatReportData","components":[{"name":"threatType","type":"uint8","internalType":"uint8"},{"name":"sourceIP","type":"string","internalType":"string"},{"name":"targetIP","type":"string","internalType":"string"},{"name":"threatLevel","type":"uint8","internalType":"uint8"},{"name":"context","type":"string","internalType":"string"},{"name":"evidenceHash","type":"string","internalType":"string"},{"name":"geolocation","type":"string","internalType":"string"}]},{"name":"_nonce","type":"uint256","internalType":"uint256"}],"outputs":[],"stateMutability":"nonpayable"},{"type":"function","name":"threatReports","inputs":[{"name":"","type":"string","internalType":"string"}],"outputs":[{"name":"id","type":"string","internalType":"string"},{"name":"timestamp","type":"uint256","internalType":"uint256"},{"name":"sourceIP","type":"string","internalType":"string"},{"name":"targetIP","type":"string","internalType":"string"},{"name":"threatType","type":"uint8","internalType":"enum ThreatEvidence.ThreatType"},{"name":"threatLevel","type":"uint8","internalType":"enum ThreatEvidence.ThreatLevel"},{"name":"context","type":"string","internalType":"string"},{"name":"evidenceHash","type":"string","internalType":"string"},{"name":"geolocation","type":"string","internalType":"string"},{"name":"agentAddress","type":"address","internalType":"address"},{"name":"verified","type":"bool","internalType":"bool"},{"name":"verificationCount","type":"uint256","internalType":"uint256"}],"stateMutability":"view"},{"type":"function","name":"usedNonces","inputs":[{"name":"","type":"bytes32","internalType":"bytes32"}],"outputs":[{"name":"","type":"bool","internalType":"bool"}],"stateMutability":"view"},{"type":"function","name":"verifyThreatReport","inputs":[{"name":"_threatId","type":"string","internalType":"string"}],"outputs":[],"stateMutability":"nonpayable"},{"type":"event","name":"ContractStateChanged","inputs":[{"name":"newState","type":"uint8","indexed":false,"internalType":"enum ThreatEvidence.ContractState"},{"name":"timestamp","type":"uint256","indexed":false,"internalType":"uint256"}],"anonymous":false},{"type":"event","name":"ThreatReportSubmitted","inputs":[{"name":"threatId","type":"string","indexed":true,"internalType":"string"},{"name":"sourceIP","type":"string","indexed":false,"internalType":"string"},{"name":"reporter","type":"address","indexed":true,"internalType":"address"},{"name":"timestamp","type":"uint256","indexed":false,"internalType":"uint256"}],"anonymous":false},{"type":"event","name":"ThreatReportVerified","inputs":[{"name":"threatId","type":"string","indexed":true,"internalType":"string"},{"name":"verifier","type":"address","indexed":true,"internalType":"address"},{"name":"verificationCount","type":"uint256","indexed":false,"internalType":"uint256"}],"anonymous":false}],"bytecode":{"object":"0x6080604052348015600e575f5ffd5b50604051611d8a380380611d8a833981016040819052602b91607d565b600580546001600160a01b03199081163317909155600680546001600160a01b039390931692909116821790555f805460ff1990811682559181526003602052604090208054909116600117905560a8565b5f60208284031215608c575f5ffd5b81516001600160a01b038116811460a1575f5ffd5b9392505050565b611cd5806100b55f395ff3fe608060405234801561000f575f5ffd5b50600436106100f0575f3560e01c806385209ee011610093578063e324a7ac11610063578063e324a7ac14610200578063e7066bc41461022b578063efd7606514610241578063feb6172414610263575f5ffd5b806385209ee0146101ac5780638da5cb5b146101c5578063a16c2bbb146101d8578063c4bc5da5146101f8575f5ffd5b8063439766ce116100ce578063439766ce1461012f5780634669554e1461013757806358714163146101675780636c26f2bc14610199575f5ffd5b806320c560d4146100f457806326d7be40146101095780634120b5e31461011c575b5f5ffd5b610107610102366004611556565b610285565b005b610107610117366004611588565b61040b565b61010761012a3660046115ca565b610458565b610107610a12565b60065461014a906001600160a01b031681565b6040516001600160a01b0390911681526020015b60405180910390f35b610189610175366004611588565b60036020525f908152604090205460ff1681565b604051901515815260200161015e565b6101076101a7366004611588565b610a85565b5f546101b89060ff1681565b60405161015e9190611734565b60055461014a906001600160a01b031681565b6101eb6101e6366004611556565b610ad2565b60405161015e9190611796565b610107610f0f565b61021361020e366004611556565b610f72565b60405161015e9c9b9a999897969594939291906118c1565b610233600381565b60405190815260200161015e565b61018961024f366004611588565b60026020525f908152604090205460ff1681565b61018961027136600461198d565b60046020525f908152604090205460ff1681565b335f9081526003602052604090205460ff166103025760405162461bcd60e51b815260206004820152603160248201527f4f6e6c7920617574686f72697a65642076616c696461746f72732063616e206360448201527030b636103a3434b990333ab731ba34b7b760791b60648201526084015b60405180910390fd5b5f60018260405161031391906119bb565b908152602001604051809103902090505f815f018054610332906119c6565b9050116103815760405162461bcd60e51b815260206004820152601c60248201527f546872656174207265706f727420646f6573206e6f742065786973740000000060448201526064016102f9565b600981018054905f61039283611a12565b919050555060038160090154106103b95760088101805460ff60a01b1916600160a01b1790555b60405133906103c99084906119bb565b60405190819003812060098401548252907fec1a8039bf3be0e86e2c02424fa0a8ca8e6b4252d8862665aab64b3ed173727f9060200160405180910390a35050565b6006546001600160a01b031633146104355760405162461bcd60e51b81526004016102f990611a2a565b6001600160a01b03165f908152600260205260409020805460ff19166001179055565b5f5f5460ff16600281111561046f5761046f61170c565b146104b55760405162461bcd60e51b8152602060048201526016602482015275436f6e7472616374206973206e6f742061637469766560501b60448201526064016102f9565b335f9081526002602052604090205460ff166105295760405162461bcd60e51b815260206004820152602d60248201527f4f6e6c7920617574686f72697a6564206167656e74732063616e2063616c6c2060448201526c3a3434b990333ab731ba34b7b760991b60648201526084016102f9565b5f3383602001518460400151428560405160200161054b959493929190611a70565b60408051601f1981840301815291815281516020928301205f818152600490935291205490915060ff16156105b75760405162461bcd60e51b8152602060048201526012602482015271139bdb98d948185b1c9958591e481d5cd95960721b60448201526064016102f9565b5f818152600460205260409020805460ff191660011790558251600760ff919091161061061c5760405162461bcd60e51b8152602060048201526013602482015272496e76616c696420746872656174207479706560681b60448201526064016102f9565b6004836060015160ff161061066a5760405162461bcd60e51b8152602060048201526014602482015273125b9d985b1a59081d1a1c99585d081b195d995b60621b60448201526064016102f9565b5f836020015151116106b65760405162461bcd60e51b815260206004820152601560248201527414dbdd5c98d9481254081a5cc81c995c5d5a5c9959605a1b60448201526064016102f9565b5f8360a00151511161070a5760405162461bcd60e51b815260206004820152601960248201527f45766964656e636520686173682069732072657175697265640000000000000060448201526064016102f9565b5f836020015161071942611312565b60405160200161072a929190611ab0565b604051602081830303815290604052905060018160405161074b91906119bb565b9081526040519081900360200190208054610765906119c6565b1590506107b45760405162461bcd60e51b815260206004820152601f60248201527f546872656174207265706f727420494420616c7265616479206578697374730060448201526064016102f9565b5f6040518061018001604052808381526020014281526020018660200151815260200186604001518152602001865f015160ff1660068111156107f9576107f961170c565b600681111561080a5761080a61170c565b8152602001866060015160ff1660038111156108285761082861170c565b60038111156108395761083961170c565b8152602001866080015181526020018660a0015181526020018660c001518152602001336001600160a01b031681526020015f151581526020015f81525090508060018360405161088a91906119bb565b908152604051908190036020019020815181906108a79082611b34565b5060208201516001820155604082015160028201906108c69082611b34565b50606082015160038201906108db9082611b34565b50608082015160048201805460ff191660018360068111156108ff576108ff61170c565b021790555060a082015160048201805461ff0019166101008360038111156109295761092961170c565b021790555060c082015160058201906109429082611b34565b5060e082015160068201906109579082611b34565b50610100820151600782019061096d9082611b34565b506101208201516008820180546101408501511515600160a01b026001600160a81b03199091166001600160a01b03909316929092179190911790556101609091015160099091015560405133906109c69084906119bb565b60405180910390207f1c2b34e2d4c0ed11709cbff6aa2711f7ed56bd7014a65e12850d0fc148d2d16f876020015142604051610a03929190611bef565b60405180910390a35050505050565b6006546001600160a01b03163314610a3c5760405162461bcd60e51b81526004016102f990611a2a565b5f805460ff191660019081179091556040517fbef423ced52545594b81c8679c0d9566b5129c4120568a000c6ff1c9e89e71f491610a7b914290611c10565b60405180910390a1565b6006546001600160a01b03163314610aaf5760405162461bcd60e51b81526004016102f990611a2a565b6001600160a01b03165f908152600360205260409020805460ff19166001179055565b610ada611417565b600182604051610aea91906119bb565b9081526020016040518091039020604051806101800160405290815f82018054610b13906119c6565b80601f0160208091040260200160405190810160405280929190818152602001828054610b3f906119c6565b8015610b8a5780601f10610b6157610100808354040283529160200191610b8a565b820191905f5260205f20905b815481529060010190602001808311610b6d57829003601f168201915b5050505050815260200160018201548152602001600282018054610bad906119c6565b80601f0160208091040260200160405190810160405280929190818152602001828054610bd9906119c6565b8015610c245780601f10610bfb57610100808354040283529160200191610c24565b820191905f5260205f20905b815481529060010190602001808311610c0757829003601f168201915b50505050508152602001600382018054610c3d906119c6565b80601f0160208091040260200160405190810160405280929190818152602001828054610c69906119c6565b8015610cb45780601f10610c8b57610100808354040283529160200191610cb4565b820191905f5260205f20905b815481529060010190602001808311610c9757829003601f168201915b5050509183525050600482015460209091019060ff166006811115610cdb57610cdb61170c565b6006811115610cec57610cec61170c565b81526020016004820160019054906101000a900460ff166003811115610d1457610d1461170c565b6003811115610d2557610d2561170c565b8152602001600582018054610d39906119c6565b80601f0160208091040260200160405190810160405280929190818152602001828054610d65906119c6565b8015610db05780601f10610d8757610100808354040283529160200191610db0565b820191905f5260205f20905b815481529060010190602001808311610d9357829003601f168201915b50505050508152602001600682018054610dc9906119c6565b80601f0160208091040260200160405190810160405280929190818152602001828054610df5906119c6565b8015610e405780601f10610e1757610100808354040283529160200191610e40565b820191905f5260205f20905b815481529060010190602001808311610e2357829003601f168201915b50505050508152602001600782018054610e59906119c6565b80601f0160208091040260200160405190810160405280929190818152602001828054610e85906119c6565b8015610ed05780601f10610ea757610100808354040283529160200191610ed0565b820191905f5260205f20905b815481529060010190602001808311610eb357829003601f168201915b505050918352505060088201546001600160a01b0381166020830152600160a01b900460ff161515604082015260099091015460609091015292915050565b6006546001600160a01b03163314610f395760405162461bcd60e51b81526004016102f990611a2a565b5f805460ff191681556040517fbef423ced52545594b81c8679c0d9566b5129c4120568a000c6ff1c9e89e71f491610a7b914290611c10565b8051602081830181018051600182529282019190930120915280548190610f98906119c6565b80601f0160208091040260200160405190810160405280929190818152602001828054610fc4906119c6565b801561100f5780601f10610fe65761010080835404028352916020019161100f565b820191905f5260205f20905b815481529060010190602001808311610ff257829003601f168201915b50505050509080600101549080600201805461102a906119c6565b80601f0160208091040260200160405190810160405280929190818152602001828054611056906119c6565b80156110a15780601f10611078576101008083540402835291602001916110a1565b820191905f5260205f20905b81548152906001019060200180831161108457829003601f168201915b5050505050908060030180546110b6906119c6565b80601f01602080910402602001604051908101604052809291908181526020018280546110e2906119c6565b801561112d5780601f106111045761010080835404028352916020019161112d565b820191905f5260205f20905b81548152906001019060200180831161111057829003601f168201915b505050506004830154600584018054939460ff8084169561010090940416935091611157906119c6565b80601f0160208091040260200160405190810160405280929190818152602001828054611183906119c6565b80156111ce5780601f106111a5576101008083540402835291602001916111ce565b820191905f5260205f20905b8154815290600101906020018083116111b157829003601f168201915b5050505050908060060180546111e3906119c6565b80601f016020809104026020016040519081016040528092919081815260200182805461120f906119c6565b801561125a5780601f106112315761010080835404028352916020019161125a565b820191905f5260205f20905b81548152906001019060200180831161123d57829003601f168201915b50505050509080600701805461126f906119c6565b80601f016020809104026020016040519081016040528092919081815260200182805461129b906119c6565b80156112e65780601f106112bd576101008083540402835291602001916112e6565b820191905f5260205f20905b8154815290600101906020018083116112c957829003601f168201915b50505050600883015460099093015491926001600160a01b03811692600160a01b90910460ff1691508c565b6060815f036113385750506040805180820190915260018152600360fc1b602082015290565b815f5b8115611361578061134b81611a12565b915061135a9050600a83611c3f565b915061133b565b5f8167ffffffffffffffff81111561137b5761137b61148e565b6040519080825280601f01601f1916602001820160405280156113a5576020820181803683370190505b5090505b841561140f576113ba600183611c52565b91506113c7600a86611c65565b6113d2906030611c78565b60f81b8183815181106113e7576113e7611c8b565b60200101906001600160f81b03191690815f1a905350611408600a86611c3f565b94506113a9565b949350505050565b604051806101800160405280606081526020015f815260200160608152602001606081526020015f60068111156114505761145061170c565b81526020015f81526020016060815260200160608152602001606081526020015f6001600160a01b031681526020015f151581526020015f81525090565b634e487b7160e01b5f52604160045260245ffd5b60405160e0810167ffffffffffffffff811182821017156114c5576114c561148e565b60405290565b5f82601f8301126114da575f5ffd5b813567ffffffffffffffff8111156114f4576114f461148e565b604051601f8201601f19908116603f0116810167ffffffffffffffff811182821017156115235761152361148e565b60405281815283820160200185101561153a575f5ffd5b816020850160208301375f918101602001919091529392505050565b5f60208284031215611566575f5ffd5b813567ffffffffffffffff81111561157c575f5ffd5b61140f848285016114cb565b5f60208284031215611598575f5ffd5b81356001600160a01b03811681146115ae575f5ffd5b9392505050565b803560ff811681146115c5575f5ffd5b919050565b5f5f604083850312156115db575f5ffd5b823567ffffffffffffffff8111156115f1575f5ffd5b830160e08186031215611602575f5ffd5b61160a6114a2565b611613826115b5565b8152602082013567ffffffffffffffff81111561162e575f5ffd5b61163a878285016114cb565b602083015250604082013567ffffffffffffffff811115611659575f5ffd5b611665878285016114cb565b604083015250611677606083016115b5565b6060820152608082013567ffffffffffffffff811115611695575f5ffd5b6116a1878285016114cb565b60808301525060a082013567ffffffffffffffff8111156116c0575f5ffd5b6116cc878285016114cb565b60a08301525060c082013567ffffffffffffffff8111156116eb575f5ffd5b6116f7878285016114cb565b60c08301525095602094909401359450505050565b634e487b7160e01b5f52602160045260245ffd5b600381106117305761173061170c565b9052565b602081016117428284611720565b92915050565b5f81518084528060208401602086015e5f602082860101526020601f19601f83011685010191505092915050565b600781106117305761173061170c565b600481106117305761173061170c565b602081525f825161018060208401526117b36101a0840182611748565b9050602084015160408401526040840151601f198483030160608501526117da8282611748565b9150506060840151601f198483030160808501526117f88282611748565b915050608084015161180d60a0850182611776565b5060a084015161182060c0850182611786565b5060c0840151838203601f190160e085015261183c8282611748565b91505060e0840151601f198483030161010085015261185b8282611748565b915050610100840151601f198483030161012085015261187b8282611748565b91505061012084015161189a6101408501826001600160a01b03169052565b50610140840151801515610160850152506101608401516101808401528091505092915050565b61018081525f6118d561018083018f611748565b8d602084015282810360408401526118ed818e611748565b90508281036060840152611901818d611748565b9050611910608084018c611776565b61191d60a084018b611786565b82810360c084015261192f818a611748565b905082810360e08401526119438189611748565b90508281036101008401526119588188611748565b9150506119716101208301866001600160a01b03169052565b92151561014082015261016001529a9950505050505050505050565b5f6020828403121561199d575f5ffd5b5035919050565b5f81518060208401855e5f93019283525090919050565b5f6115ae82846119a4565b600181811c908216806119da57607f821691505b6020821081036119f857634e487b7160e01b5f52602260045260245ffd5b50919050565b634e487b7160e01b5f52601160045260245ffd5b5f60018201611a2357611a236119fe565b5060010190565b60208082526026908201527f4f6e6c7920676f7665726e616e63652063616e2063616c6c20746869732066756040820152653731ba34b7b760d11b606082015260800190565b6bffffffffffffffffffffffff198660601b1681525f611a9c611a9660148401886119a4565b866119a4565b938452505060208201526040019392505050565b667468726561745f60c81b81525f611acb60078301856119a4565b605f60f81b8152611adf60018201856119a4565b95945050505050565b601f821115611b2f57805f5260205f20601f840160051c81016020851015611b0d5750805b601f840160051c820191505b81811015611b2c575f8155600101611b19565b50505b505050565b815167ffffffffffffffff811115611b4e57611b4e61148e565b611b6281611b5c84546119c6565b84611ae8565b6020601f821160018114611b94575f8315611b7d5750848201515b5f19600385901b1c1916600184901b178455611b2c565b5f84815260208120601f198516915b82811015611bc35787850151825560209485019460019092019101611ba3565b5084821015611be057868401515f19600387901b60f8161c191681555b50505050600190811b01905550565b604081525f611c016040830185611748565b90508260208301529392505050565b60408101611c1e8285611720565b8260208301529392505050565b634e487b7160e01b5f52601260045260245ffd5b5f82611c4d57611c4d611c2b565b500490565b81810381811115611742576117426119fe565b5f82611c7357611c73611c2b565b500690565b80820180821115611742576117426119fe565b634e487b7160e01b5f52603260045260245ffdfea26469706673582212201de3b8b92d4fa5c118ea21765e43691e04074cc9364ab6be496aa6428a7202c164736f6c634300081e0033","linkReferences":{}},"methodIdentifiers":{"MIN_VERIFICATION_COUNT()":"e7066bc4","addAuthorizedAgent(address)":"26d7be40","addAuthorizedValidator(address)":"6c26f2bc","authorizedAgents(address)":"efd76065","authorizedValidators(address)":"58714163","contractState()":"85209ee0","getThreatReport(string)":"a16c2bbb","governanceCommittee()":"4669554e","owner()":"8da5cb5b","pauseContract()":"439766ce","resumeContract()":"c4bc5da5","submitThreatReport((uint8,string,string,uint8,string,string,string),uint256)":"4120b5e3","threatReports(string)":"e324a7ac","usedNonces(bytes32)":"feb61724","verifyThreatReport(string)":"20c560d4"},"id":0}